:020000041000EA
:10000000002008205D0100101301001015010010F0
:100010001101001011010010110100101101001058
:100020001101001011010010110100101701001042
:100030001101001011010010190100101B01001026
:100040001D0100101D0100101D0100101D010010F8
:100050001D0100101D0100101D0100101D010010E8
:100060001D0100101D0100101D0100101D010010D8
:100070001D0100101D0100101D0100101D010010C8
:100080001D0100101D0100101D0100101D010010B8
:100090001D0100101D0100101D0100101D010010A8
:1000A0001D0100101D0100101D0100101D01001098
:1000B0001D0100101D0100101D0100101D01001088
:1000C0001D0100101D0100101D0100101D01001078
:1000D0001D0100101D0100101D0100101D01001068
:1000E0001D0100101D0100101D0100101D01001058
:1000F0001D0100101D0100101D0100101D01001048
:100100001D0100101D0100101D0100101D01001037
:1001100000BE00BE00BE00BE00BE00BEEFF3058004
:10012000103800BEF2EB8871706E00109C6E0010EB
:10013000A801001090A31AE7D3DEFFFF42012110AF
:10014000FF01000088760000793512AB4FF0000007
:100150002049086006C881F3088810474FF05040D6
:10016000006810B14FF00000F2E70FA40ECC002998
:1001700002D000F015F8F9E71749184A002000E00E
:1001800001C19142FCD1002080F30A8814498847BC
:10019000144988471449884700BEFDE701C901C2D8
:1001A0009A42FBD3704700BF9C6E001010010020E4
:1001B000340A0020C077001000000820000008204A
:1001C000C077001000100820001008200000000078
:1001D0007047000008ED00E0340A002048100220BB
:1001E0009D630010D504001095630010F8B500BFA2
:1001F000064B0749C91A891048BF0131491003D07D
:10020000044B0BB101481847704700BF340A002067
:10021000340A00200000000008B5054B1BB1054959
:100220000548AFF30080BDE80840FFF7E1BF00BF1D
:1002300000000000600C0020E86B001000232DE996
:10024000F0432DED068B1F46DFED488ADFED489A1F
:100250009FED489A9FED48AA98461D4683B0474EA9
:10026000ADF806304FF0FF3230680DF1060101F0B5
:10027000D3F868B3BDF9063008EE103AB8EEC88A74
:1002800028EE298A78EE688A01F010FEF4EEC98A19
:10029000F1EE10FA044609DCF4EECA8AF1EE10FA27
:1002A00004D4002D5ED1F0EE488ADBE7E31BC72BB8
:1002B000F9D98DB1A4EB0805B5F5FA7F28D9B5F5C4
:1002C000FA7F8CBF002501252746F0EE488AC9E752
:1002D0000A2002F0B7FCC5E7294806F0CFF918EE6E
:1002E000900A06F049FC02460B46264806F046FAFC
:1002F00003274FF0010343EC4070642002F0A2FC9E
:1003000045EC407001252746F0EE488AA046A9E753
:100310001D4806F0B3F918EE900A06F02DFC0246CF
:100320000B46184806F02AFA04254FF0010949EC5B
:100330004050642002F086FC4FF0000747EC40502C
:10034000642002F07FFC49EC4050642002F07AFC0B
:1003500047EC4050642002F075FC00252746F0EE83
:10036000488A7FE73C46A0EB0805A8E700000000AC
:1003700040DAFF389A99193F9A9919BF4010022024
:10038000E86B0010F86B0010086C001010B500242A
:1003900045F2207C84B002AA022319210094094866
:1003A000ADF808C004F080F942F2230C02231921B1
:1003B000009403AA0348ADF80CC004F075F904B02A
:1003C00010BD00BF040A00200F2500B5012487B02E
:1003D000FFF7DCFF0DEB05028DF80F50002519210A
:1003E00023462548009404F05FF9234604AA192106
:1003F0000095214804F060F99DF810101F4806F0A0
:10040000BDF92022192123468DF811201A480DF13B
:100410001102009404F048F91921234600950DF1CA
:100420001202154804F048F915489DF8121006F01C
:10043000A5F9AC26134D012300240DF113020093FE
:1004400019210D488DF8136004F02EF905AA022336
:1004500019210094084804F02FF9BDF914C023466F
:100460002246286805A9ADF814C000F0FBFE05205F
:1004700002F0E8FBDFE700BF040A0020146C001064
:10048000286C00104010022030B50F4885B006F0EF
:10049000F5F80824002501230C480DF10F02009502
:1004A000E1B204F009F9002804DA0134782CF2D121
:1004B00005B030BD21460648013406F05FF9782CBE
:1004C000E9D105B030BD00BF3C6C0010040A00202B
:1004D000506C001070B582B006F088F8032003F06D
:1004E0009BF80125032445EC4440042003F094F8D4
:1004F000042345EC44301C491C4804F0AFF8214665
:10050000082003F057F82146092003F053F8294644
:100510000022082003F06CF829460022092003F08D
:1005200067F8FFF7B1FF00220221202000F05AFEF9
:10053000002406460E4B00954FF480721E600D4954
:10054000234601940C4802F017FA4FF480722346B8
:100550000A49CDE900540A4802F00EFA02F036FAD0
:10056000204602B070BD00BF801A0600040A0020B9
:1005700040100220686C0010C9030010746C001059
:100580003D020010F8B5431E0A3311D810F00703DE
:1005900000F1080467D0A3F10902A24208D3103089
:1005A000C41A01F07BFC354922460D681DBB0AE0E8
:1005B00001F074FC31490A6822B1002502F03AFBCF
:1005C0002846F8BD14462E4B2E4D58071CBF073346
:1005D00023F007031E46002025F007050D602A4979
:1005E000EB1AC1E900602949C5E900000B60C6E9C2
:1005F000005327490B60002ADFDD254F3E68A642E5
:10060000DBD3214B18461B6803E01A6822B1184659
:1006100013465968A142F8D3AB42CED01D46A1EB98
:10062000040C55F8082BBCF1100F026007D92146C5
:1006300003EB040ECEF804C01A51C0F800E0002409
:10064000124A761A106841F000418642114838BFBC
:1006500016600268596001321C603E60026002F060
:10066000E9FA2846F8BD01F019FC044922460D6854
:10067000002DA8D0002CC0DA9FE700BFA80C0020F6
:10068000400F0020380F0220FC0F0220CC0F022068
:10069000BC0F0220D80F022090B338B550F8043CAC
:1006A0000446002B00DB38BD50F8082C002AFAD194
:1006B00023F0004340F8043CA0F1080501F0EEFBF4
:1006C0001A4854F8041C0268194B0A4402601A467E
:1006D0001B689D42FBD8506802EB000C654510D0AA
:1006E000681883421DD044F8083CAA4218BF156020
:1006F000104A136801331360BDE8384002F09ABA1B
:1007000070470144501883425160F1D10A48006893
:100710009842EDD01546D3E900400144C5E90041B7
:10072000E3E7054800688342F5D1DCE7BC0F02200F
:10073000FC0F0220DC0F0220A80C00200A4B93F9CA
:100740000020002A0FDB4FF050410123D1F888012F
:100750009340184207D04FF0E0224FF08050C1F88C
:100760008C31C2F8040D7047A0090020002300B5A9
:1007700083B0019300F060FA019B002BFCD003B022
:100780005DF804FB10B502F02DFB044601F09AFB66
:1007900028B14FF0E0234FF08052C3F8042D2046DB
:1007A000BDE8104002F0B4BB10B504224FF0E024C5
:1007B000002322610520A36102F06CFE0721044B97
:1007C000A3FB00239B09013B6361216110BD00BFB6
:1007D000D34D62104FF0E0234FF07F42002130B53F
:1007E00085B00391C3F81C2DD3F81C3D1B0E8DF86A
:1007F00007309DF807309DF807301A060CD5039B8B
:10080000013303939DF807305B00DBB28DF80730AE
:100810009DF807301B06F2D4039B082B40D0039BA6
:10082000C3F107031B0203F4E0634FF05041254876
:10083000254A036012780B689A4233D04FF0E023C8
:1008400000244FF05045D3F8202D204942F47F0278
:10085000C3F8202D0E20C3F81C4D03F015FD1C49D4
:100860000B2003F011FD1B4B2A68FF211A2043F8CF
:10087000224003F065F81A20174902F037FF0121E2
:100880001A2002F00DFF00F0CFF9286801F034FCC7
:10089000029400F0D1F9029B002BFCD005B030BDD2
:1008A0000023C2E7FFF780FF4FF0E022D2F8203D9F
:1008B0000A4943F07F43C2F8203D0F2003F0E4FCD7
:1008C000BCE700BF500F0220A1090020610C0010FE
:1008D000F90C0010480F02203D070010850700109A
:1008E00008B500F0A9F9BDE80840FFF773BF00BFE5
:1008F0004FF0E0234FF08052C3F8042DBFF34F8F29
:10090000BFF36F8F704700BF836913F8023C662BFB
:1009100000D070474FF0E023D3F8882D42F47002E6
:10092000C3F8882DD3F8342F42F04042C3F8342F57
:1009300000F05EB92DE9F04F4FF0113E4FF080749A
:1009400040E909E34FF0073340F8044C164C40F8F7
:10095000343C40E903424FF005334FF006324FF08C
:10096000123B40E90F324FF0033A4FF002394FF09B
:1009700001384FF010374FF009364FF008354FF07F
:1009800004346FF0020340E905AB40E9078940E910
:100990000B6740F8305C40F8404C40F8443C40F86D
:1009A000481DBDE8F08F00BF6D07001070B50E2028
:1009B00002F0E2FD0F2002F0DFFD0121032003F031
:1009C000F9FC024601234FF05041002452B2084E78
:1009D0009340084D32700848C1F88C31C1F8843119
:1009E0002C7003F0C3FCFFF7F5FE204670BD00BF7E
:1009F000A0090020A1090020E1080010EFF3058301
:100A00000F2B84BF014A9B5C704700BFF0E300E0FE
:100A1000094B1B78FF2B0BD0EFF30583DBB22BB117
:100A20004FF05042106800EB4300704701F01CBECD
:100A30004FF0504318687047A109002010B51F4BB4
:100A40008E461B7882B0FF2B2ED04FF0010C02682F
:100A50001B4BD21A1B4BA3FB02131B0903EB4303D3
:100A6000A2EBC3020CFA02F140BF00240368C3E802
:100A70008F4F8EF31088EFF30583134ADBB21068B3
:100A800023B902B0BDE8104000F0DAB901AA019420
:100A900000F00AFA019B2BB14FF0E0234FF0805297
:100AA000C3F8042D02B010BD40BF00230268C2E8A5
:100AB0008F3F81F3108802B010BD00BFA109002054
:100AC000F80B0020ABAAAAAAB80F02202DE9F0412A
:100AD000364C064694F800C00F46BCF1FF0F144692
:100AE0001D4682B050D003F009FB40F2E733B4EB6F
:100AF000000C65EB01011CEB030041F10001B0F5B6
:100B00007A7F71F10003D6F800801DDA0023C8E86F
:100B10008F3F87F31088264B5A6A95420DD94FF0C4
:100B2000E0234FF08052C3F8042DBFF34F8FBFF383
:100B30006F8F002002B0BDE8F0819B6AA34230D3E2
:100B4000012002B0BDE8F0814FF47A72002306F074
:100B50001FF80028DAD00023C8E88F3F87F31088F9
:100B60000122009031681348091A1348A0FB016064
:100B7000000900EB4000A1EBC001104802FA01F1AE
:100B8000006800F005F9C6E700230268C2E88F3F5D
:100B900081F310882046294602B0BDE8F04103F0F9
:100BA00029BA9542BBD00120CBE700BFA1090020A4
:100BB00000000B40F80B0020ABAAAAAAB80F022035
:100BC00008B500F0D7F8014B186008BDB80F022037
:100BD00001234FF05042034991F900108B40C2F8B5
:100BE00080317047A00900200000000000000000D4
:100BF0000BA10CC9126853F82210086806C881F3CB
:100C00000B88022181F31488203080F30988BFF318
:100C10006F8F4FF0000080F311881047AFF3008012
:100C2000000000D0980C002062B661B6BFF34F8F71
:100C3000BFF36F8F66DF00BFEFF311804FF010013D
:100C400081F31188BFF34F8FBFF36F8F704700BFE1
:100C500080F31188BFF34F8FBFF36F8F704700BFD2
:100C6000EFF309811EF0100F08BF21ED108AEFF39A
:100C70000B82734621E9FC0F55FC084457FC0964BC
:100C800059FC0A8401E9F00319A00CC8106853F854
:100C9000203019604FF0100181F31188BFF34F8F9E
:100CA000BFF36F8F01F028FA4FF0000080F3118836
:100CB0000FA10CC9126853F8221008681838B0E860
:100CC000F00345EC004447EC016449EC0284B0E8D1
:100CD000FC0F13F0100F08BFB0EC108A82F30B88E2
:100CE00080F30988184700BFAFF30080AFF300809E
:100CF000000000D0980C00201EF0040F0CBFEFF392
:100D00000880EFF309800149084700000909001035
:100D10002DE9F84307460D4600F10C0901F0BEF835
:100D20003B683C692B43A1453B601ED04FF0000857
:100D300009E036B1D30148BF48EA050801F0B6FF23
:100D40003B68A1450FD020460268646822F07F45C9
:100D500012F0806F43F0007105EA0306E9D0B54256
:100D6000E8D0A145EFD123EA08033B60BDE8F84392
:100D700001F060BF10B51C20FFF704FC044620B151
:100D8000002340F8043B00F09DF8204610BD00BF52
:100D90002DE9F04180460D461E46174601F07EF8CB
:100DA000D8F8004004EA050356B933B33FB324EA48
:100DB0000505C8F8005001F03DFF2046BDE8F08170
:100DC0009D42F3D0069BD3B1391E18BF01211A46AC
:100DD000090641F08061294308F1040001F030FB6D
:100DE00001F028FF30B302F0C5F88301044611D5A5
:100DF00024F07F442046BDE8F081069B23B901F032
:100E000019FF2046BDE8F081391E18BF01211A469E
:100E10000906E0E701F0A8FCD8F8004005EA040361
:100E20005EB923B11FB124EA0505C8F8005002F0ED
:100E300023F8DDE701F086FCD5E7AB42F7D1F1E717
:100E40002DE9F84307460D4600F10C0901F026F89C
:100E50003B683C692B43A1453B601ED04FF0000826
:100E600009E036B1D30148BF48EA050801F01EFF8A
:100E70003B68A1450FD020460268646822F07F4598
:100E800012F0806F43F0007105EA0306E9D0B54225
:100E9000E8D0A145EFD123EA08033B6001F0CAFE88
:100EA0003868BDE8F88300BF8C4600B58646134617
:100EB0007146624602485DF804EB02F06BBA00BF6F
:100EC000110D00104FF0FF31002200F10803C0E9BE
:100ED0000131C0E903330260704700BF00230361A2
:100EE000704700BF10B4D0E9003294680133C1E903
:100EF0000124616091605DF8044B086103607047F4
:100F000030B40D686B1C10D000F108031C465B6800
:100F10001A68AA42FAD902684B60013299608C6063
:100F20006160086130BC0260704704696368F2E781
:100F30000346026910B45468406899689C42816015
:100F4000486008BF5160002110685DF8044B01380B
:100F500019611060704700BF70B51646026C0446F8
:100F6000856B2AB9066801354EB31046A56370BD7E
:100F70008EB9406805F058FD6368216CA2680B4487
:100F80009342636028BF236805F1010528BF6360B1
:100F90000020A56370BDC06805F046FD226CE368C3
:100FA00051429B1A2268E360934202D2A3680B4429
:100FB000E360022E08D001350020A56370BD806873
:100FC00001F062FBA660D1E7012D38BF0125DFE704
:100FD0002DE9F043064685B001F0C6FB96F8453092
:100FE0005DB2002D1CDD06F1240708E0A26BE36B67
:100FF00003969A423DD36B1EDAB25DB282B1B46CF5
:10100000002CF3D1736A5BB1384601F0B7FA0028BF
:10101000F1D001F01FFB6B1EDAB25DB2002AEED1F7
:10102000FF2386F8453001F027FF01F09DFB96F87D
:1010300044305CB2002C14DD06F1100503E0631EA1
:10104000DAB25CB26AB133695BB1284601F096FA54
:101050000028F4D001F0FEFA631EDAB25CB2002A76
:10106000F1D1FF2386F8443005B0BDE8F04301F02C
:1010700003BF94F84580226CA36B4FFA88F803F104
:1010800001099AB92368002B3FD0B8F1FF3FC4F89B
:1010900038902ED1636A002BADD004F1240001F00A
:1010A0006DFA0028A7D001F0D5FAB4E7606803A96B
:1010B00005F0BAFC6368226CC4F838901344A26847
:1010C000636093420ED32368B8F1FF3F6360E1D0C1
:1010D00000F0F2FE40458ED908F101035BB284F8BE
:1010E000453088E7B8F1FF3FF2D1636A002B82D028
:1010F000D3E700F0E1FE8045BFF47DAF08F10108C1
:101100004FFA88F884F8458075E7A068019301F0EC
:10111000BBFA019BB8F1FF3FC4F83890A360814649
:1011200008D1636A9BB9B9F1000F3FF464AF01F0D5
:1011300091FA70E700F0C0FE4045F4D908F10103D0
:101140005BB284F84530B9F1000FF0D153E704F1F8
:10115000240001F013FA00287FF45BAFE3E700BF3F
:10116000F0B5846C83B0A26BE36B01909A4203D319
:101170000025284603B0F0BD94F84560226CA76BAB
:1011800076B2E2B1606801A905F04EFC6268236C9A
:101190001A44A36862609A4201D323686360002501
:1011A0000137731CA76313D1636A002BE1D004F1EC
:1011B000240001F0E3F9002818BF0125D9E72568CC
:1011C000002DECD1A06801F05FFAA5600546E7E7C5
:1011D00000F072FE8642CCD2013676B284F84560C9
:1011E000C7E700BFF8B5C0B31746A1FB002305460B
:1011F0000E4693BB01FB00F010F1550F2DD8543073
:10120000FFF7C0F9044640B356B300F15403C4E9F4
:101210000F56236001F0A8FA0025FF23216CA56377
:1012200084F8443084F84530E36B226801FB03F313
:10123000591A626013440A44C4E9023204F11000EE
:10124000FFF740FE04F12400FFF73CFE01F014FE1E
:1012500084F850702046A564F8BD00242046F8BDEF
:101260000346D4E72DE9F041022B84B01F46044623
:101270008846019249D000252E4607E001F0FCFD8A
:101280002046FFF7A5FE01F0D5FC012501F06CFA20
:10129000A26BE06B82424ED30198002860D085B3E8
:1012A00001F0EAFD00F0FAFD01F05EFA94F8443036
:1012B000FF2B08BF84F8446094F84530FF2B08BF2B
:1012C00084F8456001F0D8FD01A902A801F038FDBD
:1012D00000284BD101F048FAA26BE36B9A42CDD1C2
:1012E00001F0CAFD019904F1100001F08FF82046C9
:1012F000FFF76EFE01F09EFC0028C6D101F022FA35
:10130000C3E702A801F09AF9CAE701F02DFA3A46BC
:1013100041462046A36BA56BFFF71EFEA36C9BB155
:101320001DB92046FFF71CFFB8B901F0A5FD01204B
:1013300004B0BDE8F0813A4641462046A36BFFF772
:101340000BFEA36C002BECD1636A002BECD004F1F4
:10135000240001F013F90028E7D001F0F3F9E4E7E5
:1013600001F08AFD002004B0BDE8F0812046FFF7BF
:101370002FFE01F05FFCF5E72DE9F84304469046A7
:101380001D460F46FFF73AFB01F02CFDA26BE36B05
:1013900006469A4208D3022D06D00024304601F0BA
:1013A000B7FD2046BDE8F883394694F845702A46D3
:1013B00020467FB2D4F83890FFF7CEFD7B1C17D1C2
:1013C000A36CFBB1022D02D1B9F1000F09D1204667
:1013D000FFF7C6FE28B1B8F1000F02D00123C8F80C
:1013E00000300124304601F093FD2046BDE8F8832B
:1013F00000F062FD8742F4D201377FB284F8457075
:101400000124EFE7636A002BEBD004F1240001F024
:10141000B5F80028DFD1E4E7F0B5044685B00F4603
:10142000019201F0A1F9A56B002D53D1019BA3B34B
:1014300002A801F003F92E4601F01EFD00F02EFD7A
:1014400001F092F994F84430FF2B08BF84F844600F
:1014500094F84530FF2B08BF84F8456001F00CFD7F
:1014600001A902A801F06CFCE0B901F07DF9A36BC1
:101470002BBB01F001FD019904F1240000F0C6FF2F
:101480002046FFF7A5FD01F0D5FB00B301F06CF994
:10149000A56BFDB9019B002BCED101F0EDFC002026
:1014A00005B0F0BD2046FFF793FD01F0C3FB01F04E
:1014B0005BF9A36B002BF0D001F0DEFCE6E701F056
:1014C000DBFC2046FFF784FD01F0B4FBDEE701F012
:1014D00039F9DBE7226C5AB1E168A36811449942FB
:1014E000E16028BF2168384628BFE16005F09CFA1A
:1014F0002369013DA56323B901F0BEFC012005B0BD
:10150000F0BD04F1100001F039F80028F4D001F02A
:1015100019F9F1E7002955D0444B5A68904272D02E
:101520001A6810B4002A2CD0DA6890427BD09A68EE
:10153000002A41D05A69904273D01A69002A42D0D9
:10154000DA69904265D09A69002A42D05A6A90427C
:1015500044D01A6A002A45D0DA6A90425BD09A6A6F
:10156000002A44D05A6B904257D01A6B002A43D0BD
:10157000DA6B904253D09B6B002B42D05DF8044B4A
:101580007047DA6890424ED05A69904249D01A4664
:10159000DC69A0423DD05C6AA0421FD0DC6AA04258
:1015A00039D05C6BA04238D0DC6BA04237D0C2E9A6
:1015B00000105DF8044B70475A69904231D003F136
:1015C0000802E5E77047DA69904222D003F1100281
:1015D000E1E75A6A904201D0154ADFE7042203EBA3
:1015E000C202E4E7DA6A904215D0124AD9E75A6B90
:1015F000904212D0104AD7E7DA6B90420FD00F4AD0
:10160000D5E70F4AD3E7002203EBC202C2E900107C
:1016100070470322E3E70522E1E70622DFE707221E
:10162000DDE70222DBE70122D9E700BFB80B00208B
:10163000D00B0020D80B0020E00B0020E80B00208E
:10164000F00B002070B504460E46154601F08CF8EC
:1016500094F84430FF2B04BF002384F8443094F8FE
:101660004530FF2B04BF002384F8453001F004FC13
:10167000A36B23B12046BDE87040FFF7A9BC04F17D
:1016800024002A46314600F02BFF2046BDE870407A
:10169000FFF79EBC064C08B5FFF72AF92368022B1A
:1016A00000D8FEE7FFF724F92368022BFAD8F8E701
:1016B000B40C0020F8B5836B002B02DB836B012B8D
:1016C00016DD324C036B26685A1E276823689B6B15
:1016D000002B03DB23689B6B012B0ADD66686568C2
:1016E00063689B6B002B03DB63689B6B012B20DD26
:1016F000F8BD27490D68002DF0D1FF6B336B07F063
:1017000001069B1B9A42E9DB4668F607E6D5D4F84A
:1017100004C067686268926B002A1ADB6268926B89
:10172000012A16DC4E68A6B91A46FD6BDCF830308B
:1017300007E017494B68002BDAD1336B4FF0FF36C7
:10174000ED6B05F001055B1B934219DD0136CFD02F
:1017500000254FF050431B689D420DD054F82530B2
:101760009B6B0233C4D02846FFF732FA6FF00102B8
:1017700054F825309A63F8BD012341F82530F8BDAF
:1017800043689B07E2D50125E3E700BF980C0020E2
:10179000381002204FF050411B4B0A6853F82200CA
:1017A00000282CD053F82200013843F822000A68A0
:1017B00053F822301BBB10B51449154B53F8224087
:1017C0000B78013BDBB20B702BB9124800F81230DA
:1017D000114AC2E88F3F4FF050424B781068013BEE
:1017E000DBB24B7033B90B4A0C4902EB4002537029
:1017F000C1E88F3F0020FFF72BFA0CB910BD7047EE
:10180000BDE81040FFF774B8480F0220440F0220D3
:1018100038100220400F0220060C0020070C002088
:101820002DE9F8439600804630460D469946FEF76E
:10183000A9FE002800F0888007467C20FEF7A2FE63
:10184000044600287DD07C22002105F09FF8324616
:10185000A5213846676305F099F8636B043E1E4482
:1018600026F00706002D3ED02B7884F84030002B60
:1018700036D06B7884F8413093B3AB7884F842303B
:1018800073B3EB7884F8433053B32B7984F8443046
:1018900033B36B7984F8453013B3AB7984F84630B1
:1018A000F3B1EB7984F84730D3B12B7A84F8483020
:1018B000B3B16B7A84F8493093B1AB7A84F84A308B
:1018C00073B1EB7A84F84B3053B12B7B84F84C30F6
:1018D00033B16B7B84F84D3013B1AB7B84F84E3061
:1018E000002384F84F30089D04F108001F2D28BF05
:1018F0001F252563A565FFF7F1FAC5F1200504F161
:101900001C00FFF7EBFA4B4642463046616BE5613F
:101910006461A462FFF70EF84FF0FF320C4B2060B9
:101920009845A26308D00B4B984505D0099B03B19D
:101930001C602046BDE8F883E36B43F00103E363DA
:10194000F4E73846FEF7A8FE00242046BDE8F883F9
:10195000451D0010951600104FF05042504B126874
:101960002DE9F047DFF844914E4CDFF8448153F8FD
:1019700022604D4D40E0DFF83CA10020FFF768F900
:10198000FFF75AF94FF050431B68DAE8CF2F0121D7
:10199000002A01D1CAE8421FBFF35F8F002A50D14D
:1019A0005B000122434462705A704FF050431A6842
:1019B000D5E8CF3F0121002B01D1C5E8431FBFF37C
:1019C0005F8F73B118F81230002B4BD1D5E8CF1FC1
:1019D00001230029FAD1C5E8413F0029F6D1BFF320
:1019E0005F8F0123237008F812304FF050431A68BC
:1019F00049F82270002F40D0B36B02334ED14FF024
:101A000050410A6859F822706FB1002349F822301A
:101A100023780A68013BDBB2237023B908F812303F
:101A2000C5E88F3F0A686378013BDBB26370002B27
:101A3000A1D108EB4202DFF87CA05370CAE88F3FC7
:101A40009BE708EB430252785B0012BBDAE8CF1F3A
:101A500001220029FAD1CAE8412F0029F6D1BFF3AB
:101A60005F8F9EE723780133DBB223704FF0504342
:101A70001A6849F82270002FBED11A682378013BFA
:101A8000DBB22370002BB7D108F81270C5E88F7F46
:101A90006FE763780133DBB2637086E7BDE8F087F8
:101AA000980C0020440F0220060C0020480F022052
:101AB000400F0220070C0020F8B5FFF7BDF84FF0EB
:101AC00050420646354B1268D3E8CF1F012000294B
:101AD00001D1C3E8410FBFF35F8F314D00293ED1E3
:101AE000510001232F4C294463704B702E4F3B68EB
:101AF000002B45D04FF050432C4A1968D2E8CF3F15
:101B00000120002B01D1C2E8430FBFF35F8F73B1F7
:101B100015F81130002B3CD1D2E8CF0F012300285B
:101B2000FAD1C2E8403F0028F6D1BFF35F8F01230E
:101B3000237005F811304FF050413B6801333B6092
:101B400023780968013BDBB223701BB905F811301B
:101B5000C2E88F3F3046BDE8F840FFF779B8510042
:101B600005EB4202527872B9D3E8CF0F0122002868
:101B7000FAD1C3E8402F0028F6D1BFF35F8FB0E75A
:101B8000FFF7EAFEB6E7074C63780133DBB2637018
:101B9000ACE723780133DBB22370CCE7070C0020DD
:101BA000400F0220440F02205C0F0220060C002090
:101BB0002DE9F843594C5A4E5A4FDFF88091DFF81F
:101BC00080812368002B37D0FFF736F8336893B154
:101BD0004FF050431B6857F82320002A3BD04FF0AA
:101BE000504157F82320013247F823200B6857F85B
:101BF0002330012B28D0236803B34B4BDB68DD680F
:101C0000AB6B013340F0838005F10800FFF790F9DA
:101C1000464A1368013B13602368013B2360336825
:101C20000BB1FFF7B7FD686BFEF736FD2846FEF7F0
:101C300033FD2368002BC7D1BDE8F8833368002B40
:101C4000BFD0FFF7A7FDBCE7D9F80030002BD2D1F9
:101C5000FFF782FECFE7D8E8CF2F0121002A01D17C
:101C6000C8E8421FBFF35F8F002A32D1304A5900C3
:101C700001233048114443704B704FF050452E4BB8
:101C80002968D3E8CFCF5FF0010EBCF1000F01D17E
:101C9000C3E84CEFBFF35F8FBCF1000F11D012F817
:101CA00011C0BCF1000F26D1D3E8CFCF0125BCF184
:101CB000000FF9D1C3E84C5FBCF1000FF4D1BFF3C2
:101CC0005F8F01234FF05045037002F811302B68ED
:101CD00085E7174A590002EB43035B788BB9D8E8D4
:101CE000CF0F01230028FAD1C8E8403F0028F6D1E1
:101CF000BFF35F8FBCE703780133DBB203702B685F
:101D00006DE70C4843780133DBB24370B5E73368C5
:101D1000002B91D0BDE8F843FFF73CBD580F0220DF
:101D2000F80F0220480F022018100220540F022042
:101D3000400F0220440F0220060C00205C0F0220FE
:101D4000070C002008B5FEF7D3FD044CFFF730FF69
:101D50002368022BFAD9FEF7CBFDF7E7B40C00207D
:101D60002DE9F84F4FF05045464A474B474C0F4638
:101D7000D4F800A0464ED2F800800446D3F8009074
:101D8000FEF75AFF2B6856F823B0FEF761FF0023D9
:101D90008BF87930FEF750FF2B6856F823B0FEF72A
:101DA00057FF0BF10800FFF7C3F8631C00D18FBB8E
:101DB0004FF050451AEB04042CBF01270027FEF713
:101DC0003BFF2B6856F823A0FEF742FFCAF80840F5
:101DD00097B9FEF731FF2B6856F82350FEF738FF0E
:101DE000404605F10801FFF78BF82A4B1A68A2421A
:101DF00088BF1C60BDE8F88FFEF71EFF2B6856F801
:101E00002340FEF725FF484604F10801BDE8F84FDE
:101E1000FFF776B8204C6768FEF70EFF2B6856F880
:101E20002380FEF715FFC8F80C70FEF705FF2B683E
:101E300056F82380FEF70CFFBB68C8F81030FEF799
:101E4000FBFE2B6856F82380FEF702FFBA6808F104
:101E500008035360FEF7F0FE2B6856F82380FEF768
:101E6000F7FE08F10803BB60FEF7E6FE2B6856F8A4
:101E70002350FEF7EDFE2368AC6101332360BDE81B
:101E8000F88F00BFA40C0020AC0C00202C10022006
:101E9000980C0020D00F022004100220024B1B6877
:101EA00003B97047FFF708BEF80F0220014B18680E
:101EB000704700BF2C100220014B1868704700BF0C
:101EC000540F0220814B2DE9F0471B685BBB804B10
:101ED0001D6801351D6075B3DFF81882D8F8003031
:101EE000AB4240D97B4C7C4D2B681B6B03EB8303CF
:101EF00054F82330012B6B681B6B03EB830354F8FE
:101F0000233040F28F80012B4FF050431E6840F287
:101F1000A380002E00F0CB802B689B6B023300F077
:101F2000AE8001249EE000246C4A136801331360E4
:101F30002046BDE8F0876A4B6A4A18681168196044
:101F4000694910600A6801320A601A681268002A3A
:101F500074D14FF0FF33DFF89C81C8F80030D8F817
:101F60000030AB42BED8DFF87891D9F800301B685A
:101F7000002B00F09E800026564C5C4F44E099698F
:101F8000D3E9032AC2F808A0CAF804204A68184610
:101F900062450A6808BFC1F804A0013A9E610A6060
:101FA000D96A71B1D3E9082AC2F808A0CAF8042096
:101FB0004A6872450A6808BFC1F804A0013ADE62A7
:101FC0000A601A6BD7F800E002EB8201724504EB5D
:101FD000810E88BF3A60DEF80420D2F808A0DA60EB
:101FE000C3F810A0CAF804C0C2F808C054F82120F1
:101FF000C3F818E0013244F82120FFF75BFBD9F861
:1020000000301B68002B55D0D9F80030DB68DB6846
:102010009A6803F1080C954203F11C0EAFD2C8F880
:10202000002060E7012B11D94FF05042304B166869
:102030001B6823B3002E7FF46FAF38E01B68DFF816
:10204000B480DB681B68C8F8003047E74FF05041A8
:10205000274B0E681A6872B136B32B689B6B02333C
:1020600008D000240020FEF7B3FD6FF001022B68BA
:102070009A6324B91E4B5C68002C3FF459AF012EC3
:102080001DD000244FF050431B68012B1BD06B6800
:102090009B6B02333FF44CAF0120FEF799FD6FF0CC
:1020A00001026B689A6343E7114B5B683BB1012403
:1020B000E8E7084C4FF0FF33C8F8003013E701247D
:1020C0002046BDE8F0870A4A536031E75C0F0220E2
:1020D0002C100220B40C0020980C0020E00F0220ED
:1020E000A40C0020AC0C0020D40F0220640F0220AE
:1020F00038100220D00F02202DE9F84F4FF0504346
:102100000446DFF8A0A21B68DAE8CF2F0121002ADD
:1021100001D1CAE8421FBFF35F8FDFF88C82002A2B
:102120004CD15A0001239A4E4244737053704FF0C1
:102130005043DFF878921A68D9E8CF3F0121002B8D
:1021400001D1C9E8431FBFF35F8F7BB118F812308C
:10215000002B40F0B180D9E8CF1F01230029FAD12C
:10216000C9E8413F0029F6D1BFF35F8F01233370E7
:1021700008F81230874B1B68002B31D001214FF03B
:102180005043854A42F82410D3F800C03378013B0D
:10219000DBB233701BB908F81C30C9E88F3F4FF031
:1021A000504273781268013BDBB2737023B908EBBD
:1021B00042025370CAE88F3FBDE8F88F5A0008EB1F
:1021C00043035B78002B7CD1DAE8CF1F0123002981
:1021D000FAD1CAE8413F0029F6D1BFF35F8FA1E7EA
:1021E0006D4A6E4D42F824306D4ADFF8C4B117686D
:1021F00055F82430996955F824301B6B03EB8303A1
:102200000BEB8303994268D0012007EB87030BEBAC
:10221000830319680833A04051B91168143B013990
:102220001160002F54D053F8081C013F0029F4D04E
:10223000B446596899422DD0BE4606E055F8246050
:10224000B2422FD04968994223D0CA68966B771C56
:10225000F4D157683842F5D06346944632461E465C
:102260004FF0504355F824108A6355F82410CCF8E9
:10227000384045F824C0D3F800C039B1086B8B69E9
:1022800000EB80070BEB870B5B4539D055F82C3002
:102290007CE77746143BD7B153F8082C013F002A5E
:1022A000F8D0C6E756683042CCD04FF05043946324
:1022B0006646D3F800C0E9E733780133DBB2337008
:1022C00058E7334E73780133DBB273702FE76646FD
:1022D0004FF05043D3F800C0D8E755F82400083039
:1022E000FEF726FE55F8243055F82410186B0831F7
:1022F00000EB80000BEB8000FEF7F4FD284A83E73B
:102300004B68C96B01F00101411A23FA04F0C707B9
:1023100004D555F82400406823EA00039C0703F025
:10232000030064D568686C68006BE46B03F001031C
:1023300004F00104001B81423CDC002BA6D02B687A
:1023400028681B6BC06B00F001001B1A99429DDDD1
:102350002B689B6B002B99DB2B689B6B012B4EDD55
:10236000013293D00124644544D055F824309B6B4E
:1023700002338BD02046FEF72BFC6FF001014FF0AB
:10238000504355F824209163D3F800C07EE700BF86
:10239000440F02205C0F022038100220980C00200D
:1023A000640F0220070C0020400F0220060C0020C2
:1023B000B40C00206C68A46B002CBEDB6C68A46BB2
:1023C000012CBADC104C6468002CB6D1002BC9D0AB
:1023D0002B6829681B6BC96B01F001015B1A9842DD
:1023E000C0DD2B689B6B002BBCDB0122B4E700280F
:1023F000A5D14BE70123044A42F82C3068E7024B91
:102400001C68002CAFD0ABE73810022070B50C462A
:102410000546FEF711FC4FF05042084B126853F886
:102420002260FEF715FC284606F11C01FEF768FD48
:102430002046BDE870400121FFF792BC980C0020B7
:102440002DE9F8434FF050460F4604469046234D81
:10245000FEF7F2FB336847F0004755F82390FEF78C
:10246000F7FBC9F81C706768FEF7E6FB336855F8A0
:102470002390FEF7EDFBC9F82070FEF7DDFB336813
:1024800055F82390FEF7E4FBBB68C9F82430FEF74B
:10249000D3FB336855F82390FEF7DAFBBA6809F1ED
:1024A0001C035360FEF7C8FB336855F82390FEF712
:1024B000CFFB09F11C03BB60FEF7BEFB336855F888
:1024C0002350FEF7C5FB0121236840460B44EC6214
:1024D0002360BDE8F843FFF743BC00BF980C002021
:1024E0002DE9F0474FF05046044617468946D0F88C
:1024F0000480214DFEF7A0FB336855F823A0FEF7BA
:10250000A7FBCAF82080FEF797FB336855F823A095
:10251000FEF79EFBD8F80830CAF82430FEF78CFB93
:10252000336855F823A0FEF793FBD8F808200AF18A
:102530001C035360FEF780FB336855F823A0FEF7B9
:1025400087FB0AF11C03C8F80830FEF775FB3368F7
:1025500055F82350FEF77CFB2368002F03F101039D
:10256000EC62394608BF4846236018BF4FF0FF3081
:10257000BDE8F047FFF7F4BB980C002070B50025CC
:10258000C368D868C36AD0E90842A26054605C6836
:1025900000F11C018C42244C08BF5A601A68246860
:1025A000013AC5621A60002C32D1D0E90312836966
:1025B0008A605160596800F10805A94208BF5A6055
:1025C0001A681A49013A1A60036B0A689342184A5A
:1025D00088BF0B6003EB83034FEA830C02EB83039A
:1025E0005C6852F80C10A6680131C4600661756021
:1025F000A560836142F80C10FFF75CF84FF0504281
:102600000C4B126853F82200003818BF012070BD2F
:10261000094B5C68A268C0E9084251601A68A16071
:102620000132C3621A60E7E75C0F0220640F0220E8
:10263000B40C002038100220E40F0220034A044B9F
:1026400012681B68C0E90023704700BFD40F022046
:102650002C1002204FF050420121024B126843F827
:10266000221070473810022010B5FEF7E5FA4FF03F
:102670005042044B126853F82240FEF7E9FA204614
:1026800010BD00BF980C002058B1C36D016B826D66
:10269000013B914270B50446C36500D01BB10020D8
:1026A00070BD0020704700F108052846FEF740FC89
:1026B000204AA36D116823638B4288BF13601E4AB2
:1026C000C3F1200003EB83034FEA830C02EB830387
:1026D000E061586852F80C108668E0602661756009
:1026E0008560A361A36B0131002B42F80C1002DB63
:1026F000A36B012B01DD012070BD4FF05043A26B95
:102700001B689A4210D0A36B0C4D55F823309B6B7D
:102710000233F0D0A06BFEF75BFA6FF00102A36BFF
:1027200055F823309A63E6E70121A26B044B43F886
:102730002210E0E7640F0220B40C0020980C002067
:10274000381002204FF05043054A1B6852F82320EE
:1027500022B10121034A42F823107047FEF7C8B89E
:10276000480F02203810022038B5FEF765FA3E4BBC
:102770001B6893B14FF050433C4A1B6852F823103A
:10278000A1B14FF0504052F82310013142F823100C
:10279000036852F82330012B00D038BD344B1B683E
:1027A000002BFAD1BDE83840FFF7D6B83149D1E85F
:1027B000CF0F0124002801D1C1E8404FBFF35F8F44
:1027C000002831D12C484FEA430C01232B49844483
:1027D0004B708CF801304FF0504C294BDCF8004026
:1027E000D3E8CF5F5FF0010E002D01D1C3E845EFC4
:1027F000BFF35F8F85B110F81450002D27D1D3E8B7
:10280000CFCF0125BCF1000FF9D1C3E84C5FBCF17B
:10281000000FF4D1BFF35F8F01234FF050450B70D1
:1028200000F814302B68ACE713484FEA430C00EB78
:1028300043035B7893B9D1E8CF4F0123002CFAD141
:10284000C1E8443F002CF6D1BFF35F8FBDE70B78A2
:102850000133DBB20B70DCF8003092E707494B78AC
:102860000133DBB24B70B6E7F80F0220480F0220AD
:102870005C0F0220070C0020400F0220440F0220B2
:10288000060C00202DE9F0410546FFF76DFF2E4AAA
:102890002E4F1368013313603B6853B32C4E2D4BFE
:1028A00005F108041A6801322A651A602A4A2B6B5E
:1028B00011688B4288BF136003EB8303980006EB1B
:1028C000830359683258D1F808C0D7F800E00132C4
:1028D000E960C5F810C0CCF804408C60AB613250A0
:1028E000BEF1000F2CD13B6843B3BDE8F041FEF7C9
:1028F00051BF1368164E012BD1D1344606F520780E
:1029000020461434FEF7DEFA4445F9D1DFF864803E
:10291000124C4046FEF7D6FA2046FEF7D3FA10488E
:10292000FEF7D0FA0F48FEF7CDFA0F48FEF7CAFAC5
:102930000E4BC3F800800E4B1C60B0E7BDE8F08181
:102940002846FEF7B7FECEE7540F0220F80F02200C
:10295000B40C0020600F0220640F0220A40F02209C
:10296000E40F02201810022004100220A40C002002
:10297000AC0C0020900F022010B582B0049C009493
:10298000059C0194FEF74CFF38B14FF0FF324260D6
:10299000FFF778FF012002B010BD4FF0FF3002B00A
:1029A00010BD00BF10B582B0049C0094069C019439
:1029B000FEF736FF30B1059A4260FFF763FF012052
:1029C00002B010BD4FF0FF3002B010BD0023F0B5D3
:1029D0003024264A264E87B0CDE9016225484FF4BF
:1029E000007202A90093ADF80C40FEF719FF20B168
:1029F0004FF0FF324260FFF745FF31230024326879
:102A00001D4D8DF80C301D4B94631D4801930094AF
:102A100023462A6002A94FF40072FEF701FF88B135
:102A20004FF0FF374760FFF72DFF012273689A636D
:102A30006B6000F069FC012805460BD0114B1B6848
:102A400007B0F0BD012273689A636B600D4B1B6881
:102A500007B0F0BDFEF7F0F80B490C4A0C4B0F60C5
:102A600015601C60FDF7A2FFE8E700BF49444C4534
:102A7000C00F0220451D0010980C0020C40F02203A
:102A800095160010946D0010D00F0220F80F022050
:102A90002C1002202DE9F047FFF766FE4FF0504062
:102AA000574A584913680568013B13604B78006822
:102AB000013BDBB24B7033B9534901EB40014B7022
:102AC0005249C1E88F3FD2F800C0BCF1000F6ED16F
:102AD0004F4B1C68002C62D04E4F3B68002B48D0F7
:102AE000DFF848E14C4EFB68DB68DA6AD3E908108E
:102AF00088604160516803F11C04A142116808BF5D
:102B000050600139C3F82CC011609969D8681A69FE
:102B10004C688260506003F10800844208BF4A603C
:102B20000C681A6BDEF80080013C424502EB820A19
:102B30000C603ED906EB8A046168CEF80020D1F81B
:102B4000088056F82A20D960C3F81080C8F804001D
:102B500088609C613B68013246F82A20002BC2D174
:102B60002E4B1A681268002A43D14FF0FF322C4BCB
:102B70001A60DFF8BC80D8F80040002C32D0012762
:102B8000284EFFF79FF908B146F82570013CF8D1AF
:102B9000C8F8004056F82540003C18BF0124224BDD
:102BA0001B680BB1FEF7F6FD2046BDE8F087002458
:102BB000F5E706EB8A04616856F82A20D1F8088008
:102BC000D960C3F81080C8F8040088609C613B6835
:102BD000013246F82A20002B85D1104B1A68126862
:102BE0003AB9C2E70F4E56F82540003C18BF012401
:102BF000D5E71A680A4BD26812681A60B9E700BFB5
:102C00005C0F0220440F0220400F0220070C00201E
:102C1000540F0220E40F0220B40C0020A40C00206A
:102C2000D00F022038100220F80F0220640F02207B
:102C3000E00F0220024B186800B97047FFF72ABF67
:102C4000F80F022020B582B038B1154D2B68DBB9E2
:102C50000021FFF785F82B688BB94FF05043114ADC
:102C60001B6852F823202AB101210F4A42F8231091
:102C700002B020BD02B0BDE82040FDF739BEFFF72D
:102C800009FF0028E9D0F3E70190FEF715FF0021C6
:102C90000198FFF765F82B68002BDED0EFE700BF47
:102CA000F80F0220480F022038100220F8B5D0E9B2
:102CB00001520027036941F0004101605968C4686E
:102CC0008142AA60556008BF5A601A68D4E903615E
:102CD000013A07611A60A36904F108055A68B160F6
:102CE000AA421A684E6008BF59601249013A1A6038
:102CF000236B0A689342104A88BF0B6003EB83037F
:102D0000980002EB830359688E68E1602661756064
:102D10008D601158A36101311150FFF725FD204648
:102D2000FEF7C8FC054B1B681BB1BDE8F840FEF779
:102D300031BDF8BD640F0220B40C0020F80F022052
:102D40002DE9F84F04464FF05047DFF894A00D46A8
:102D5000204EFFF709FDDAF80090D4F80480FDF763
:102D60006BFF3B6856F823B0FDF772FF9BF8793094
:102D700023BB2B685A1C18D0174A2168106881425F
:102D800006D06168494503D800232B6001240DE07B
:102D9000A9EB08018B42F7D91168A3EB0903DAF814
:102DA000002043442B60C4E9001200240B4B1B6835
:102DB0000BB1FEF7EFFC2046BDE8F88FFDF73CFFB6
:102DC0003B6856F82340FDF743FF002384F8793031
:102DD000DCE700BF980C0020D40F0220F80F02207F
:102DE0002C1002201F4B186800B9704770B5FDF712
:102DF00023FF4FF050421C4C136854F8231029B1A4
:102E000054F82320013244F8232070BD1749D1E83B
:102E1000CF5F0126002D01D1C1E8456FBFF35F8F61
:102E20004DB9134D012213490A7005F813204FF0D4
:102E300050431B68E4E70E4D15F813605EB9D1E806
:102E4000CF6F0122002EFAD1C1E8462F002EF6D115
:102E5000BFF35F8FE6E707490B780133DBB20B70F6
:102E60001368CDE7F80F0220480F0220060C00205F
:102E7000400F0220440F02201E4B1B68002B34D051
:102E80004FF050411C4B0A6853F8220000282CD008
:102E900053F82200013843F822000A6853F8223020
:102EA0001BBB10B51549164B53F822400B78013B5C
:102EB000DBB20B702BB9134800F81230124AC2E88B
:102EC0008F3F4FF050424B781068013BDBB24B70A4
:102ED00033B90C4A0D4902EB40025370C1E88F3FF1
:102EE0000020FDF7B5FE0CB910BD7047BDE81040DD
:102EF000FDF7FEBCF80F0220480F0220440F02200D
:102F000038100220400F0220060C0020070C002081
:102F1000134B1B6803B970474FF05041114B0A68BF
:102F200010B453F82240C4B153F82240013C43F896
:102F300022400A6853F822307BB90B490B78013BD9
:102F4000DBB20B702BB9094C094904F81230C1E807
:102F50008F3F5DF8044BFDF77BBE5DF8044B704777
:102F6000F80F0220480F0220440F0220400F0220D9
:102F7000060C0020F8B54FF05046FDF75DFE0D4DF4
:102F8000336855F82340FDF763FEE769FDF754FE0B
:102F9000336855F82340FDF75BFE246BFDF74CFECC
:102FA0003368C4F1200455F82350FDF751FE38462C
:102FB000EC61F8BD980C00202DE9F04FB74FDFF819
:102FC000E4B2DFF8E482B64D87B03B681C68002CA1
:102FD00040F01D81FEF762FFFEF768FFDBF800306E
:102FE0008146834248D8D8F80030CBF800001A68F0
:102FF000B2FA82F252092868A4EB0901FEF722FB1B
:10300000FFF718FE002800F024810023CDE90233E9
:10301000CDE904330022286802A9FEF7FDF9002853
:10302000D3D0029B0498002BC0F2E980DDF810A0F9
:10303000DAF814301BB10AF10400FDF779FFFEF74E
:1030400035FFDBF800300190984243D3DDE90123DE
:10305000013BCBF80020082BDCD8DFE803F06161EE
:10306000C0A5C76161C0A50022F001028AF828202E
:103070005046DAF8203098473B681A68002A00F07A
:10308000D880DA68D2F80CA014680AF10406304639
:10309000FDF74EFF9AF828205107E5D503E050468A
:1030A000DAF820209047DAF81820CAF810A0111991
:1030B000A418CAF80410F2D33146D8F80000FDF77E
:1030C0001FFFD5E721F0010189F828104846D9F8FB
:1030D000203098473B681968002900F0B480D9680F
:1030E000D1F80C900C6809F104063046FDF720FF7A
:1030F00099F828104807E5D503E04846D9F820108C
:103100008847D9F81810C9F8109008196418C9F838
:103110000400F2D33146D8F80000FDF7F1FED5E700
:103120009AF828000399DAF81840019A0B1940F030
:1031300001068AF828602CBF012600269342CAF8AF
:103140000430CAF810A000F28780511A8C423FD890
:10315000410712D420F001008AF828005046DAF81E
:103160002030984756E78C4200F2C680DAF82030CB
:10317000504698473346DAF81840019AE6182CBFB3
:1031800001200020B242A2EB0301CAF80460CAF891
:1031900010A0E8D29A4201D20028E7D038680AF19C
:1031A0000401FDF7ADFED9E70399019A9AF828309A
:1031B000881843F0010390428AF82830CAF81810A2
:1031C000CAF80400CAF810A04BD800293FF422AF77
:1031D000D8F800000AF10401FDF792FE1AE79AF808
:1031E000283023F001038AF8283013E79AF82830B2
:1031F0009A0777D523F001038AF828300AE7039B62
:1032000005999847029B002BFFF604AF0EE7DB6899
:103210001C68FEF743FEFEF749FEDBF800308146EE
:1032200083423FF629AF8442CBF800001FD9002229
:10323000E1E6D8F80020CBF800903A60C8F80030FA
:10324000FFF7F8FCE1E6D8F80010C8F80030396064
:10325000FCE6FFF777FAD8E6914202D9002E3FF458
:1032600077AF38680AF10401FDF74AFED2E6FFF7AE
:10327000E1FC3B68DB68DE68331D18460193FDF70F
:1032800057FE96F82820530716D422F0010286F83C
:1032900028203046336A9847B7E600BFA00C0020CC
:1032A00030100220C80F0220B00C002081421DD82F
:1032B0003046316A88475446B169A9EB040014EBE3
:1032C000010A2CBF01230023CA45C6F804A03661B9
:1032D000ECD94C4501D9002BEAD001993868FDF7AB
:1032E0000FFED6E75046FDF7D7F993E60199D8F8D7
:1032F0000000FDF705FECCE7D8F800000AF1040154
:10330000FDF7FEFD2AE700BFF0B5194C85B0FFF7C9
:103310002BFA25689DB1FFF7AFFD206868B14FF02B
:10332000FF351F241349002302914FF48062CDE939
:10333000004511491148FFF735FB05B0F0BD104EAF
:10334000104F3046FDF7BEFD3846FDF7BBFD0E4A77
:103350000E4B176010212A460A201E60FDF742FF1F
:1033600020600028D7D00A49FEF7D4F8D3E700BF81
:103370003010022034100220886C0010B92F001089
:10338000680F02207C0F0220B00C0020A00C00204F
:10339000806C00109C46F0B507460E4615466FF04F
:1033A0000104074B85B06946624618680023CDE9E1
:1033B000017603950094FDF7DFFF05B0F0BD00BF77
:1033C0003010022000EB400C4FEA8C0C0CF1804CCA
:1033D0000CF5803CF0B51646DCF80420051FB2F56C
:1033E000803F38BF4FF48032EDB238BFCCF80420B4
:1033F000012D2AD94FF40067254C0CF54052176077
:1034000054F82020B2B9DCF80020012D82EA4612DF
:1034100002F0E0020CF5805632602AD94FF40061C8
:1034200044F820304FF480330CF500521160CCF892
:103430000430F0BD6769B7FBF2FE0EF1010E0EEB32
:103440004E0EBEF1030EFCD2DDE70129D2D10324DA
:103450000CF540521460DCF80820D207FBD5DCF8EC
:1034600000200B4C82EA461202F0E0020CF5805676
:1034700032600122DCF800504D4005F00305356054
:1034800002FA01F1DCF808200A42FBD0C6E700BFCF
:10349000280C0020014B53F820007047280C002016
:1034A0000FB400B583B0049C074803F0E7F83CB1C3
:1034B00005A92046019102F053FF044803F0DEF80D
:1034C000012002F065FF00BF906C0010A06C00109E
:1034D000EFF3108072B6064BD3E8CF1F012200290C
:1034E000FAD1C3E8412F0029F6D1BFF35F8F7047AF
:1034F000030C00200023034AC2E88F3F80F31088AA
:10350000704700BF030C002070B58646EFF31085AE
:1035100072B6124CD4E8CF6F0120002EFAD1C4E865
:10352000460F002EF6D1BFF35F8F4FF0010CC80895
:1035300001F007030CFA03F31EF800C01CEA0306AF
:1035400008D14CEA030C0EF800C0C4E88F6F85F375
:10355000108870BD1046FFF7A3FF00BF030C0020CA
:10356000044A1078431CDBB2182B28BF10231370B9
:10357000704700BFA20900200146024A0248FFF737
:10358000C3BF00BFA46C0010200C00204FF0E0224D
:10359000936843F000539360704700BF0021044BD1
:1035A00003F12002C3E88F1F01339342FAD1704721
:1035B000F80B002010B44FF480740C4B53F820200B
:1035C00003EB8003C00082F0400200F1804003F56D
:1035D000805C02F0C00200F5203003F54053CCF8C7
:1035E000002041601C605DF8044B7047048003407C
:1035F00010B4084CC90041EA820154F8202004EBC1
:103600008003514003F5805301F00C015DF8044B39
:10361000196070470480034030B44FF0000343EC5E
:10362000440043EC400005254FF480740B4BC2006E
:1036300053F8201003EB800081F0400102F1804339
:1036400003F5203301F0C00200F5805100F5405031
:103650000A605D60046030BC704700BF04800340B6
:103660004FF0E0234FF08032C3F80024C3F8042465
:10367000C3F80824C3F80C24C3F81024C3F8142496
:10368000C3F81824C3F81C24C3F82024C3F8242446
:10369000C3F82824C3F82C24C3F83024704700BF93
:1036A000012300F01F029340400941B1800000F166
:1036B000604000F56140C0F8803103607047024A05
:1036C000203042F82030704700E100E00123064A34
:1036D000410952F8212000F01F0003FA00F01040C9
:1036E000003818BF0120704700E100E0F8B50D4632
:1036F000EFF3108772B6124ED6E8CF2F0123002ABF
:10370000FAD1C6E8423F002AF6D1BFF35F8F0D4BD6
:1037100000F110049B680C4A53F82430934203D004
:10372000994201D001F054F8064B9B6843F82450AD
:10373000BFF35F8F0023C6E88F3F87F31088F8BD83
:10374000010C002000ED00E01D0100102DE9F04FFC
:1037500083B0EFF3108A72B6714ED6E8CF2F0123F3
:10376000002AFAD1C6E8423F002AF6D1BFF35F8FA4
:103770006C4B00F110089B686B4A53F82850954237
:1037800045D08D420C4650D0684FEB1B2F2B3ED8B6
:1037900001214FEA50194FEA890909F1604909F5F9
:1037A000614900F01F0301FA03F0D9F80030C9F8AD
:1037B000800000EA030BBFF35F8FEFF30581C9B20E
:1037C000002934D0884505D0CDE9001001F000F87B
:1037D000DDE9001025F0010EDEF808C0644505D1D2
:1037E00089E0D3F808C0644531D09E469EF9062092
:1037F00002EB4203002A07EB8303F2DA644561D04F
:10380000BBF1000F20D0C9F88001C9F80000454B7A
:103810009B6843F82850BFF35F8F0023C6E88F3FB3
:103820008AF3108803B0BDE8F08F1546EFE725F066
:10383000010EDEF808C06445D8D19EF906407346F3
:10384000002C08DA154646E0C9F88000DFE793F956
:103850000640002C37DB04EB440C07EB8C0C9CF887
:103860000710DCF80820D9719A609CF906206100E5
:10387000002A9A713DDBBCF804E05FEA4E5E05D594
:103880000EF5FF1E0EF5FF5E0EF11F0E6FF0070C1A
:103890000A194FEA6E5E920002EB4E0208323A4479
:1038A000ACEB030C6244C2F34A026FEAC2426FEA15
:1038B000D2429A801E4B21441A7807EB81011C707A
:1038C0008A719DE77346D9B9FF228EF806204BF620
:1038D0000152AEF80420164C4AF6AA2294F800C011
:1038E0001946C91B49414A43120D83F806C022708C
:1038F00086E7104ADDE79EF906407346002CAADAF7
:103900000D4A0E4CD21A083AC2F30A316FEA01513D
:103910006FEA115144EA5202DA80998070E700BFE1
:10392000010C002000ED00E01D010010A4090020A2
:103930004410022001BDFFFFDE09002000F8FFFF58
:103940004FF0FF0C20F0030303F1604303F56443E1
:1039500000F003001A68C0000CFA00FC22EA0C0216
:1039600081400A431A607047F0B5EFF30585EDB268
:10397000EFF3108C72B62649D1E8CF2F0123002A2D
:10398000FAD1C1E8423F002AF6D1BFF35F8F214E42
:1039900040F0010EB4684AF6AA2354F825701E4A76
:1039A0000446A41A644163431B0D77455BB21BD0E8
:1039B00092F906409C421CD092F912409C4223D0BE
:1039C00092F91E409C4221D092F92A409C4208BFA5
:1039D00003240FD0114A0024157813708571C1E8B3
:1039E0008F4F8CF31088F0BDB2680D4C42F8254023
:1039F000F0E7002404EB440402EB8402FF249471FA
:103A00004BF601549480E5E70124F3E70224F1E743
:103A1000010C002000ED00E0A40900204410022069
:103A20001D010010014B0B4403607047F80B002090
:103A3000F8B5124C124DAC4211D24FF0FF360027B0
:103A400023686BB1FFF78CFD01462046FFF7EAFFC4
:103A500066602772BFF35F8F0C34AC42F0D3F8BDC1
:103A6000FFF77EFD01462046FFF7DCFF6660BFF3EF
:103A70005F8F0834AC42E3D3F8BD00BF240A0020B6
:103A8000340A0020000000002DE9F04F2DED028BDC
:103A900085B0EFF30583DBB2103B9A0818BF012213
:103AA0004FF0010103F0030B18BFAF4DAF4B08BF40
:103AB000AF4D0BEB820253F8226001FA0BF205F5D1
:103AC00041539FEDA78B01925A602FE0B3881C04ED
:103AD00040F19380B379002B40F0DD80B6F90820E7
:103AE000002AC0F21E81736902EB420203EBC2039B
:103AF000D3E90247B7F1FF3F08BFB4F1FF3F0ED053
:103B000005EB8B01AB6A0A69D21AE31A934205D31B
:103B100001232A6A03FA0BF3134200D10C612846F1
:103B200000F0E4FAA042B941C0F2FB80B6F90830D7
:103B3000019A002B0093EA63C8DBD6F8148003EBEC
:103B40004309284608EBC907D7E9024A00F0CEFA34
:103B5000A04271EB0A01B9DBBAF1000FC0F2C380D9
:103B6000D7E90431834A934200F0ED807A88B6F9B0
:103B7000080092B242EA0040984702460B4652EAD9
:103B8000030100F0B080002B80F2D180B4EB020E74
:103B90006AEB030A38F93930C7E902EA002B95DBF2
:103BA000716903EB430201EBC202D2E90270BE4528
:103BB0007AEB000C4FEA430288DBB4462CF8083F4E
:103BC00006E003EB430001EBC0005A00D0E90270AD
:103BD000BE451A447AEB000001EBC20404DB31F964
:103BE0003230A446002BECDA28F83930009BACF8D0
:103BF0000030B3881C043FF56DAF3369EFF31082DA
:103C000072B6D3E8CF0F01210028FAD1C3E8401FD4
:103C10000028F6D1BFF35F8F4FF6FF74B088002302
:103C2000316900B2B480C1E88F3F82F310889842B6
:103C3000FFF650AF0746A946746906F1080807EB7E
:103C4000470E04EBCE03D3E90250B6F90830C44660
:103C5000002B13DBB246009704E034F9363094466B
:103C6000002B09DB03EB430604EBC602D2E9027129
:103C7000BD4270EB0101F0DA5646009FACF80070CF
:103C800034F93E7024F83E30002FD8DAB3794D462F
:103C9000002B3FF423AF0023B371B6F9083006F1CF
:103CA0000808581C3DD01A46776903E08046591C25
:103CB0003FF416AF03EB430107EBC100B0F802C0BD
:103CC0001C461CF4004F9E4637F93130EED094422A
:103CD00080ED028B05D0A8F80030328927F831201A
:103CE00034817246E3E738F8393033813369EFF3D2
:103CF000108272B6D3E8CF0F01210028FAD1C3E8B1
:103D0000401F0028F6D1BFF35F8F7388316928F810
:103D10003930009B73800023C1E88F3F82F3108805
:103D2000D4E640BF05B0BDEC028BBDE8F08F28465D
:103D3000CDE9022300F0DAF9029A039B10EB020EA0
:103D400043EB010A26E708460B69029198470028D1
:103D5000C9D00299D1E9002311E700BFAFF3008079
:103D6000FFFFFFFFFFFFFFFF00800B40780C0020EC
:103D700000000B40893A00100B4808B50368EFF3C8
:103D8000108172B6D3E8CFCF0122BCF1000FF9D178
:103D9000C3E84C2FBCF1000FF4D1BFF35F8FFCF7E9
:103DA0004DFE0020002108BD340F00202DE9F84F02
:103DB000364C25692DB1BDE8F84F0A213448FFF78C
:103DC00031BEDFF8E4800321404600F07DF9032690
:103DD000C4F80C80FFF7C4FB4FF0504C2D4B2670FD
:103DE00003442361DCF800300F2163706369618054
:103DF0001D834FF00405A3F878504FF00505A3F894
:103E000090504FF00605A3F8A8504FF007050E217B
:103E10004FF6FF7208274FF00A0EA3F8C0504FF07C
:103E200001094FF00C0C4FF0020B4FF0090A0D2066
:103E30004FF00B05A3F868111749A280A3F808E119
:103E4000A160A3F848B0A3F8F0A0A3F82051A3F80C
:103E500038C1A3F85001A3F83090A3F86060A3F82C
:103E6000D8701A800D4B3046C8F820700C49DC60C1
:103E7000FFF73CFC49463046FFF712FC094B0A218C
:103E80001F640348BDE8F84FFFF7CCBDEC090020E4
:103E9000340F0020F80B0020FFFF1000780C0020EA
:103EA000893A001000200B4000000B400146F0B59D
:103EB0000069EFF3108772B6D0E8CF5F0124002DC0
:103EC000FAD1C0E8454F002DF6D1BFF35F8FB1F9AD
:103ED00002E04C690EEB4E0CBEF1000F4FEACC0530
:103EE000086904EBCC0C3CDB665B4E800026C0E826
:103EF0008F6F87F31088BCF80200CCE902230130F1
:103F0000C0F30E00012838BF0120059BACF8020069
:103F1000CCF81030069B40EA0E40CCF814300B6908
:103F2000EFF3108272B6D3E8CFCF0127BCF1000FB8
:103F3000F9D1C3E84C7FBCF1000FF4D1BFF35F8F20
:103F40008B886353A1F804E00B69C3E88F6F82F399
:103F500010880122CB68097803F501538A405A6022
:103F6000F0BD0023C0E88F3F87F310884FF0FF308B
:103F7000F0BD00BF03464089B0EB214F37DD5869E3
:103F80000A1402EB420210B500EBC2001C69EFF309
:103F9000108C72B6D4E8CFEF0122BEF1000FF9D138
:103FA000C4E84E2FBEF1000FF4D1BFF35F8F4288FB
:103FB00089B292B28A4207D000221B69C3E88F2FD0
:103FC0008CF31088002010BD42F400424280012191
:103FD000002218699971C0E88F2F8CF310881C7823
:103FE000DA68084602F50153A140596010BD00206F
:103FF000704700BF2DE9F04306460D4683B0EFF34E
:104000000584E4B23CB12D4B5A6AAA421CD200206E
:1040100003B0BDE8F0832A4FD7F80C9097F80080E2
:10402000484600F063F808F1040859F828301B1AD4
:10403000301A65EB0101984271F1000110DB20BFDD
:104040001E4B5A6AAA42E2D314BF012400249B6A81
:10405000B34234BF204644F0010003B0BDE8F08312
:1040600000F04CF8864265EB0101002914DB154B8A
:104070003846CDE9003432462B46FFF717FF011EC4
:104080000ADD0E4B5A6AAA4216D39B6AB34211D379
:104090000B48FFF76FFFB6E7084B5C6AAC42B6D33C
:1040A000641B18BF01249B6AB34234BF204644F00E
:1040B0000100ADE7AA42EBD120BFE9E700000B40C9
:1040C000EC090020793D001010B4054B054C064A60
:1040D000A04214BF1846581C5DF8044BFFF714BAF1
:1040E000240C002000800B40C46C00100346416A81
:1040F0000A46986A596A8A42FAD17047034B596A4C
:104100000A46986A596A9142FAD1704700000B40FA
:1041100030B4154A536A9C46946A536A6345FAD18F
:10412000021959414FF0000528BF01250E4B5B6A6B
:10413000B5B15A1C08BF1A4608D04FF0FF310A46E5
:104140000948436A8B42FCD38B4207D1064902E0FF
:10415000486A984202D1886A9042F9D330BC7047CD
:104160009942EDD8F0E700BF00000B4070B4039D0A
:1041700004682D0345EA03451B4B002CB3FBF1F308
:10418000B2FBF3F61FDB194A194B904214BF4FF4F0
:1041900080424FF40042174C1A6003F580531A60B6
:1041A000A36832EA0303FBD1212200F54053043314
:1041B000016086601A600268002AFCDA0822C56085
:1041C0001A6070BC7047036803F03F038B42DAD17A
:1041D0008368C3F30B03B342D5D1C36803F4EE2362
:1041E000AB42D0D1EDE700BF001BB7000080054017
:1041F0000020024000000240012300EB400080004C
:1042000000F1804000F5841041600360704700BFFA
:104210000023DB8A002242E800F2520201D410217E
:1042200018470421184700BF034AD2F82838002B4A
:10423000FBD0BFF35F8F704700000E400021044B9E
:10424000044ABFF35F8F43F8041B9342F9D17047D0
:104250000C080E402C080E4010B44FF48D704FF433
:104260002A64064A064B07491460D06019605368F7
:10427000002BFCDA5DF8044B704700BF008004405F
:1042800000A0044000B0FA00F8B504460D46EFF374
:10429000108772B60C4B9B6853F82060B14204D073
:1042A0000A4B9E420BD200F093FA074B9B6843F8EF
:1042B0002450BFF35F8F87F310883046F8BD044B5E
:1042C0009E42F2D3EFE700BF00ED00E010010010C6
:1042D0001C01001003BD00BF10B5044600F08EFAAB
:1042E0002346BDE810401847F0B5054687B01920B1
:1042F00017460E46FFF7EAF9002104461920FFF79A
:10430000CFF90021CDE9046503970026002701229B
:104310004FF050438C46CDE900670292A9B11A6D67
:104320009507FCD5596540BF1A6DD00703D420BF4F
:104330001A6DD207FBD59A6D8A420BD04FF0000C54
:104340000DEB8C021168E9E79A6D1A6DD607FBD464
:1043500040BFE4E70CF1010CBCF1060FF0D121469F
:10436000192007B0BDE8F040FFF79AB90C4B0D4A91
:1043700093420ED39C4603F2F4710B4A9268CCF838
:10438000F4070A48CCF8F837CCF8FC070848FFF7E0
:10439000ABBF4FF0FF3340F2F3719C46EDE700BF37
:1043A000000808200000082000ED00E0D9420010BD
:1043B000D5420010F8B504463A4E0F46FFF788F88C
:1043C000B17896F9003001F00101DB0F43EA4103B7
:1043D0002342327856D096F90130C2F38011DB0FB8
:1043E00041EA4301214273784FD0C3F38015C2F3F1
:1043F000401141EA450121424AD0C3F34015C2F3BE
:10440000001141EA4501214245D0C3F30015C2F332
:10441000C00141EA4501214240D0C3F3C005C2F3C7
:10442000800141EA4501214212D0C3F38005C2F365
:10443000400141EA4501214219D003F0020502F092
:1044400001031D43254015D0B7B11748FFF728F8E1
:1044500002250423E10744BF1A433270A20702D5A4
:10446000727813437370FFF745F82846F8BD0125AD
:104470000223EFE70123EDE76FF00805FFF73AF8B5
:104480002846F8BD07258023E4E706254023E1E719
:1044900005252023DEE704251023DBE70325082379
:1044A000D8E700BF500C0020E86C001070B5002564
:1044B00001260468002BE5668446616028469DF865
:1044C00010E0E66616DD5D1E616F1029FCD000B3BA
:1044D0000021A84204BF8EF0010641EA462141F4C2
:1044E00080712161D4F88010616B490605D54FF0C9
:1044F000FF30636D8CF804E070BDA16F0029F1D02E
:1045000021690130834202F8011BF3D0DCF800403E
:10451000DAE79CF804108902DBE700BF2DE9F041DF
:1045200000270124944602680546D7665160D46688
:104530001C1E38469DF818601EDD297986F001079B
:1045400089027F0204F1FF3E70450CBFB8464FF070
:1045500000081CF8013B0B4343EA08031361536B4B
:10456000D906FCD5D2F8801049B970451CD001306D
:1045700084424FF00001E7D12E71BDE8F0814FF089
:104580000108536D536B9B05FCD5136EB8F1000FFA
:10459000EDD069B1CB070BD411F0080F08BF4FF075
:1045A000FF302E71BDE8F081002EE0D1B046E9E782
:1045B0004FF0FF30E0E700BFF8B5044605200F4696
:1045C000FEF768FF00EB570CBCFBF7FC204D0CEB33
:1045D0004C02A5FB02651F49AE088F4200EB400369
:1045E000ACEB95052ED801F1D64101F5A10101F6FC
:1045F0002C01A1FB03139B0D013300214F2A98BF0F
:1046000001222468B0FBFCF0E166216804F58057C4
:1046100081F0040101F00601396088BF0C49E561B1
:1046200084BFA1FB021292092662C4F8A020224690
:10463000012152F87C5F6B409BB202F580521360FF
:10464000E166F8BD0449A1FB0313DB0D0133D4E798
:10465000CDCCCCCC3F420F00893BE6550E4A30B45E
:10466000904214BF202210220C4D0D4B0D4C2A609D
:104670001A60A36832EA0303FBD140F265150324F4
:1046800002680371D3661560D3639363C2F88840F0
:1046900030BCFFF791BF00BF040A00200020024099
:1046A000003002400000024010B49DF80440019424
:1046B0005DF8044BFFF732BF10B49DF8044001943D
:1046C0005DF8044BFFF7F2BEF8B5054606200E462E
:1046D000FEF7E0FE002842D0354A3648954214BF26
:1046E0004FF080624FF00062334B344902601A6031
:1046F0008C6832EA0404FBD12D4B4FF48071EB1A25
:10470000B3FA83F32E4A5B09062022F81310FEF752
:10471000C1FEC300B3FBF6F30133DA0920D1402612
:1047200001216962AA622F6BFB0722D42B4600226B
:1047300053F82C1F062003F5805422602F63FEF7E8
:10474000A9FE40F2013103228000B0FBF6F0EB6AD3
:1047500083F0700303F07E0323602963AA64F8BD2D
:104760004FF6FE718A421BD922464FF6FF71154E55
:10477000D7E740F2013205F540531A636B6AAC6A21
:10478000062004EB8314FEF785FE0F4BA402A3FB67
:104790000023DB0A0021B4FBF3F0FFF7B9FCC5E707
:1047A000C3F34503114603EB82161A46B9E700BF6F
:1047B000008007400020024000300240000002401C
:1047C000380F0020C0FF3F00757B2B8F704700BF64
:1047D00008B50148FEF764FEFC6C001038B5054CC6
:1047E000054DAC4204D254F8043B9847AC42FAD38E
:1047F00038BD00BFA06B0010E06B001038B5054C51
:10480000054DAC4204D254F8043B9847AC42FAD36D
:1048100038BD00BFCC6B0010E06B001010B407482F
:10482000074C084B084A094904601A608B6832EA51
:104830000303FBD15DF8044B704700BF002002402A
:104840007F3BEFEF00300240F6FFF3030000024031
:10485000044BDB6CB3F5004F03D14FF48022024BC5
:10486000DA64704700001150002011504FF0E02230
:10487000044BD2F8881D0B43C2F8883D10EE30047B
:10488000704700BF030330006FF06041044B054ADE
:1048900019609368DB4333F06043FAD1704700BF7F
:1048A000003002400000024010B545F25320FFF7EF
:1048B000AFFCBDE8104003460420184710B545F290
:1048C0005320FFF7A5FCBDE8104003460120184720
:1048D000FEF764BE10B5054B054C4FF488721846C0
:1048E000A16802F0A1F8A06010BD00BF0000002088
:1048F00000ED00E0002370B52B4C82B0C4F884308A
:10490000FFF7AAFC0122294BDA63636C012BFCD16F
:104910000321264A244B11639C6B012CFCD10226F7
:10492000052521460523224A22480096FFF71EFC52
:1049300021462B46204A21480095FFF717FC00220C
:10494000042031461E4BFEF73DFD2146284600223D
:104950001C4BFEF737FD0022082011461A4BFEF7CC
:1049600031FD002209201146174BFEF72BFD0022D6
:1049700006201146134BFEF725FD0022114B0720A0
:104980001146FEF71FFD0420FEF784FD00240F4BA7
:10499000A3FB0035AD0CE0B229460134FFF72CFC37
:1049A000062CF8D102B070BD00000140003001407B
:1049B000002F685900000540008C864700800540A4
:1049C000001BB70080D1F008006CDC0283DE1B43C3
:1049D00086B003B451FC0804CDE9020151FC09047E
:1049E000CDE9040151EC0A04CDE9060103BCF0470E
:1049F000BDE800504EEC00C4BDE800504EEC01C4D0
:104A0000BDE800504EEC02C400BD000000B5FFF749
:104A1000DFFF02E010FE30F4F8D441EC100443EC68
:104A2000112400EE010410EE010480EE200451EC8C
:104A30001004704700B5FFF7CBFF02E010FE30F422
:104A4000F8D441EC100443EC112400EE010410EE04
:104A5000210480EE200451EC3004704700B5FFF7CC
:104A6000B7FF02E010FE30F4F8D410B541EC1004AA
:104A700043EC112451EC040453EC0524A0FB024C3C
:104A80005FF0000EE0FB03CEE1FB02CE4CEC2044D5
:104A90000024E1FB03E444EC30E480EE200451EC1C
:104AA0005004BDE81040704700B5FFF791FF02E0E9
:104AB00010FE30F4F8D441EC100443EC112451EC16
:104AC0002104A0FB01126FEA820252FB100052FB8C
:104AD00012F252FB1000A0EBD07C53EC04245CFBE0
:104AE00013F153EC1524A1FB022001FB030053EC4E
:104AF0004424A2EB000050FB1CF24FEA111312EB0E
:104B0000017043EBE27140EA515020EA915020F0ED
:104B1000070053EC7524A0FB023C53EC752400FB0A
:104B200003CC01FB02CC53EC0424ACEB824C40EAF6
:104B30005C70A0F1010041EC400480EE200451ECD7
:104B40007004704700B5FFF743FF02E010FE30F439
:104B5000F8D440EC700400EE010410EE210480EE65
:104B6000200451EC3004704700B5FFF731FF02E03C
:104B700010FE30F4F8D440EC600400EE010410EEB6
:104B8000210480EE200451EC3004704700B5FFF79B
:104B90001FFF02E010FE30F4F8D441EC800400EE78
:104BA000010410EE010480EE400410EE130470477F
:104BB00000B5FFF70DFF02E010FE30F4F8D441EC31
:104BC000800400EE010410EE010480EE400410EEBB
:104BD0003304704700B5FFF7FBFE02E010FE30F42F
:104BE000F8D441EC100443EC112400EE010410EE63
:104BF0003004C0F30070704700B5FFF7E9FE02E033
:104C000010FE30F4F8D443EC102441EC110400EE13
:104C1000010410EE30F48CBF01200020704700BF6B
:104C200000B5FFF7D5FE02E010FE30F4F8D443ECF7
:104C3000102441EC110400EE010410EE30F42CBFFE
:104C400001200020704700BF00B5FFF7C1FE02E061
:104C500010FE30F4F8D441EC100443EC112400EEC3
:104C6000010410EE30F42CBF01200020704700BF7B
:104C700000B5FFF7ADFE02E010FE30F4F8D441ECD1
:104C8000100443EC112400EE010410EE30F48CBF4C
:104C900001200020704700BF704700BF2DE9F04F92
:104CA00083B09946DDE90DAB0F9B884611469A0704
:104CB000074616D1DA453AD20C460D46ABEB0A064A
:104CC0000E4422464B46414620200134B847B442A8
:104CD000F7D12946BAF1000F08D1204603B0BDE84C
:104CE000F08F0C46BAF1000F10D00E4655460C9BC3
:104CF0002E449A440191721B4B46013D41461AF8DD
:104D0000010D3446B847002DF5D101990F9B9B0743
:104D1000E3D5651AAB45E0D922464B4641462020F3
:104D20000135B8475D4504F10104F5D3D5E70C46DC
:104D3000BAF1000FD9D1D0E72DE9F04F0F9FDDF880
:104D4000248017F0020F0A9C9DF82CA00E9DDDE92F
:104D50000C9644D1F5BBB44241D207F0010B04F1EB
:104D6000FF3C4FF0300EC44404E00134A6420CF87E
:104D700001EF01D9202CF8D1BBF1000F00F08880A1
:104D8000A5422CD904F1FF3C4FF0300EC44404E09E
:104D90000134AC420CF801EF21D0202CF8D117F0EF
:104DA000100F0ED017F4806F54D1A64263D0A542E5
:104DB00061D0B9F1100F50D0B9F1020F56D0202CAC
:104DC00029D12024CDE90B57CDE90984BDE8F04F66
:104DD000FFF764BF17F0010B34D1B442BFD317F013
:104DE000100F1ED017F4806FE3D1002CDDD1B9F184
:104DF000100F63D0B9F1020F77D0302488F800404B
:104E00000124BAF1000F11D17E0748D52B2608F8EE
:104E100004600134D6E7264601344FF0300C08F820
:104E200006C0202CCDD0BAF1000FEDD02D2608F809
:104E300004600134CDE90B57CDE90984BDE8F04F9A
:104E4000FFF72CBFBAF1000F30D0B44205F1FF35A7
:104E500085D395E7B9F1100FB3D1BE063BD5202C11
:104E6000AFD0582608F804600134A8E7202CA8D059
:104E70002646013407E0661EB9D0B9F1100F36D0CE
:104E8000B9F1020FC9D14FF0620C08F806C096E7DD
:104E900017F0100FC5D017F4806F86D089E73E0752
:104EA00090D5202608F8046001348BE717F00C0F2A
:104EB00000D0013DB442FFF452AF61E7BC0612D40A
:104EC000782488F80040302488F801400224BAF1A0
:104ED000000F99D0AAE7202C3FF473AF782608F88A
:104EE000046001346BE75824EBE76224E9E717F02C
:104EF000200FA4F1020C04D04FF0580E08F80CE07B
:104F00008BE74FF0780E08F80CE086E700B97047A1
:104F100001F072BB10B1D1E900311847704700BFF2
:104F20002DE9F04F97B09DED207BDDE9225B074630
:104F3000884651EC170B249C99460C920B4602466E
:104F40008DED047B0794FFF749FE002840F0F481C3
:104F5000DDE904014FF0FF326FF48013FFF750FEDC
:104F6000002840F01B81DDE904014FF0FF32AC4B1B
:104F7000FFF782FE002840F0EE80DDE90401A4A3E3
:104F8000D3E90023FFF778FE002840F0D380DDE965
:104F90000401A1A3D3E90023FFF732FE002840F06B
:104FA000C980DDE9040100220023FFF729FE002863
:104FB00040F0E88023460D9013F4806F08BF06256B
:104FC00030212B460EAAA5F1200605E0013BB34295
:104FD00002F8011B00F09381092BF7D81E46ED1A49
:104FE000DDE90401FFF7D6FD8E4B044603EBC60353
:104FF00093ED007B8DED087BFFF7A8FD02460B4685
:10500000DDE90401FFF71AFDDDE90823FFF72AFDBA
:1050100002460B46CDE90A23FFF7CEFD8246FFF795
:10502000A7FD02460B46DDE90A01FFF707FD024630
:105030000B46CDE90A2300227B4BFFF71DFE00281B
:1050400000F0FE800AF1010A5046FFF791FD02468A
:105050000B46DDE90801FFF7E7FD10B14FF0000A4C
:105060000134002E00F0FD80681E0EABDFF8CCC1CD
:1050700018440FE0ACFB0A21C90801EB8102AAEB3E
:1050800042023032BAF1090F00F8012F40F21C81C0
:105090008A461D46202D05F1010306F1FF36E9D1B0
:1050A0002025691E0EAB6148194410E080FB0462A4
:1050B000C3EBA20303EB8302A4EB420404F130022E
:1050C00001351C4601F8012F002B00F0EB80202D4C
:1050D0004FEAE473EAD1079B03F00303012B18D1D5
:1050E000BBF1000F15D00D9B002B00F00A810BF1D6
:1050F000FF3BBBF1200F0CD96B1E0EA930220B44D5
:1051000005E001355D4503F8012F80F0D180202DA9
:10511000F7D1079B0EACCDE902B341464B4638466A
:105120000C9A01950094FFF7B9FD8246504617B0DE
:10513000BDE8F08F079B9DED047BCDE923B341468D
:105140004B4638460C9A8DED207B229517B0BDE872
:10515000F04F00F045B9610723464CBF04230323F9
:105160004146219338464B46079A48BF304CCDE91B
:1051700022B258BF2F4C0C9A209417B0BDE8F04FC4
:10518000FFF78CBDDDE9042300200021FFF756FC6A
:105190000123CDE904010D9323460DE723469C0727
:1051A00040F0AA80BBF1040F40F2A6800C9B1D4684
:1051B0001C1F04EB0B0A2A464B46414620200135B2
:1051C000B847AA45F7D155461B4C261F14F8010DC8
:1051D0002A464B464146B847B44205F10105F5D190
:1051E000079B0AF1040A9807A0D50C9CAAEB0403BC
:1051F0009B459BD952464B46414620200AF1010A65
:10520000B847AAEB04035B45F4D38FE7AFF3008004
:105210000000000065CDCD410000000065CDCDC18E
:10522000FFFFEF7FF86D00100000E03F67666666E5
:10523000506D0010586D0010646D0010CDCCCCCCBA
:105240000022DDE90A01634BFFF7DAFC00287FF456
:1052500008AFBAF1000F6AD10AF1010A002E7FF4FB
:1052600003AF2046FFF772FC02460B46DDE904015E
:10527000FFF7E4FB02460B46CDE904230022554B21
:10528000FFF7BEFC00287FF40CAFDDE9040100222B
:10529000504BFFF7F1FC00287FF403AF013424F0FA
:1052A0000104FEE6079B03F00303012B00F082805C
:1052B000202D3FF42EAF0D9B7BB32D220DEB05036C
:1052C00083F83820013524E7202B3FF4E9AE0EAAFD
:1052D00015441E44302204E0202B05F8012F3FF432
:1052E000DFAE9E4203F10103F6D12E220DEB060341
:1052F00083F83820751CD4E6DDF830A063E720255C
:105300006EE6079B13F00C0F50D00BF1FF3BAB4543
:105310003FF6F2AE202D3FF4FCAE079B5A0701D5B5
:105320002B22CBE71B077FF5F4AE2022C6E71AF04D
:10533000010F3FF496AE8FE7A60734D1BBF1030F00
:1053400031D90C9B1D46DC1E04EB0B0A2A464B464A
:10535000414620200135B8475545F7D155461E4CEA
:10536000E61E14F8010D2A464B464146B847A642B0
:1053700005F10105F5D1079B0AF1030A9D077FF5A9
:10538000D5AE0C9CAAEB04039B457FF6CFAE5246EC
:105390004B46414620200AF1010AB847AAEB040314
:1053A0009B45F4D8C2E6DDF830A0D7E7AB453FF621
:1053B000A3AEAEE6BBF1000F3FF47AAF0D9B002B1E
:1053C0009FD00BF1FF3B5D45FFF496AE202D7FF49F
:1053D00074AF9EE60000E03F5F6D0010000000002B
:1053E0002DE9F04F9FB02A9EDDE9284507469346F8
:1053F0000891099322462B46204629460E96DDE960
:105400002BA6FFF7EBFB002840F0BE802046294684
:105410004FF0FF32784BFFF72FFC002840F0B480AC
:10542000204629464FF0FF326FF48013FFF7E8FB68
:10543000002840F0A9802046294600220023FFF7DB
:10544000DFFB002840F0D581CDE90A45DDE90A23DC
:105450009046994606F4006216F480630F92139307
:1054600040F0A18058EA090340F0CA80002A40F0C9
:10547000E38106230E9316F00202109240F0D481CD
:105480005346042B38BF04230C920422043B12928F
:105490000F932046294600220023FFF7B1FB002886
:1054A00040F0F3819DED0A7B0F9B5A4603930E9BC0
:1054B0008DED007B029326F4006304933846099B2C
:1054C0000899FFF72DFD024616F0200F099B089959
:1054D0000CBF6520452002F10108B8470C9A129BC9
:1054E00016AC5D1E82EAE273A3EBE273D10F0026D5
:1054F00022469946DFF804C101E0202E10D0CE46A6
:10550000ACFB0930C00800EB8003A9EB4303303348
:10551000BEF1090F814606F1010602F8013BECD805
:105520000523002006930A2305950094099D089CF5
:105530004246CDE90330CDE901612B46214638468C
:10554000FFF7FAFB109A8046D2B1A0EB0B06B245EA
:1055500016D90BEB06022B46214620200136B84710
:10556000B245F6D80BF1FF335344CBF10102A3EB64
:1055700008034244924538BF002308F101089844CB
:1055800040461FB0BDE8F08F5A463846CDE9284561
:10559000CDE92BA60E9C099B08992A941FB0BDE863
:1055A000F04FFFF7BDBC58EA09032BD1002A3FF4A6
:1055B00062AF00230C930E9B0C9A934200F3B981C7
:1055C0004FF000082046294600220023FFF718FB71
:1055D000002840F013819DED0A7B26F4006646F416
:1055E00080668DED287B5A463846CDE92A8A099B8C
:1055F00008992C96D2E700BFFFFFEF7FCDCCCCCC33
:1056000006230E93C9F30A50A0F2FF30FFF79EFA6B
:10561000C1A3D3E90023FFF725FAC1A3D3E90023EF
:10562000FFF7F8F9C9F31309CDE90C0149F07F51EF
:1056300040460022B24B41F44011FFF7FFF9A4A30A
:10564000D3E90023FFF70EFA02460B46DDE90C0111
:10565000FFF7E0F9FFF79EFA0C90FFF777FA9EA3A9
:10566000D3E9002380468946FFF7FCF90022A54BC9
:10567000FFF7D0F9FFF78EFA0346494640461293EA
:1056800097A3D3E90023FFF7EDF9804612988946E6
:10569000FFF75CFA94A3D3E90023FFF7E3F902468E
:1056A0000B4640464946FFF7C9F902460B4680467D
:1056B0008946FFF7D7F942464B46CDE910014046EF
:1056C0004946FFF7A7F90022CDE91401DDE91001F1
:1056D0008D4BFFF7EDF900228C4BFFF79BF902464B
:1056E0000B46DDE91001FFF7E3F90022884BFFF7D5
:1056F00091F902460B46DDE91001FFF7D9F9424660
:105700004B468046894600204FF08041FFF796F9CE
:1057100002460B4640464946FFF77CF902460B46D7
:10572000DDE91401FFF7C4F900227A4BFFF772F9A3
:10573000129B002203F2FF3C4FEA0C53FFF792F951
:1057400080468946DDE90A0142464B46FFF758FA92
:1057500050B10C9B4046013B49460C9300226B4BD9
:10576000FFF7A6F9804689460C9A43466332C62A5B
:1057700006F00202109249460F9A2CD8002A5ED0F9
:10578000042212920B433FF416AFDDE90A0158A33D
:10579000D3E90023FFF75CFA48B1DDE90A0156A31B
:1057A000D3E90023FFF72CFA00287FF404AF0E9B07
:1057B000002B50D0139A002A7DD0013B0E93129BF0
:1057C0009A4505D9109B002B00F0AE800223109360
:1057D00000230F9344E022BBBAF1050F4FD906F026
:1057E0000203002B49D105231293AAF105030F935D
:1057F0003AE005F100430A940B9327E626F400668D
:1058000046F4806638462C96DDE90A67344607F18F
:1058100000455A46CDE92A8ACDE92845099B0899D1
:10582000BCE605221292ADE700230222CDE90F3239
:1058300004220C9312922CE64FF00508C2E6BAF14E
:10584000040F1FD9109B002B78D104231293AAF1C7
:1058500004030F9304E0129B9A4531D80E9B0F93DB
:105860000C9B002B3FF415AEDDE90A0142464B4686
:10587000FFF71EF9CDE90A010BE602231093052379
:105880001293F1E704231293EAE7DDE90A45A04603
:105890000F9B05F1004903930E9B5A46029326F491
:1058A000006304933846CDE90089099B0899FFF706
:1058B00037FB024608E6129B9A4544D80F92CFE781
:1058C000109B8BB30E9B0F9302231093C8E700BF6E
:1058D00061436F63A787D23F71A379094F930A4051
:1058E0001655B5BBB16B0240EF39FAFE422EE63FCA
:1058F0002D431CEBE2361A3F0000000080842E414D
:105900000000F83F0000E03F00002C400000244071
:10591000000018400000F03FFB799F501344D33F34
:10592000B3C8608B288AC63F129BAAEB03030F9370
:1059300096E7A3EB020808F1FF3843E6042312932D
:10594000022310938CE7109B002BEDD002230F92C3
:10595000109385E72DE9F04F9BB0249C954D0A9458
:10596000954CB1F1000A18BF834625601878934C16
:10597000914608BFA3460993002800F093824FF098
:1059800000080AE042464B46514608F10108D84754
:10599000099B1878002800F0CE80099B252803F188
:1059A00001030993EED11C460023224612F8010B95
:1059B000A0F1200110290AD8DFE801F04009093CD4
:1059C0000909090909090938093409093000A0F150
:1059D00030010929099440F28A802A2800F0F080D9
:1059E00000252E2800F096800026A0F168011229DB
:1059F0002DD8DFE811F049012C0043012C003801BB
:105A00002C002C002C002C002C002C002C0027003B
:105A10002C002C002C002C002C002700144643F0F6
:105A20000103C2E7144643F00203BEE7144643F005
:105A30000403BAE7144643F01003B6E7144643F0F4
:105A40000803B2E70999487843F480730132672864
:105A500009927ED8242840F2C180A0F12502422A72
:105A600000F2BC80DFE812F05001BA00BA00BA00C0
:105A7000BA00BA00BA00BA00BA00BA00BA00BA0056
:105A8000BA00BA00BA00BA00BA00BA00BA00BA0046
:105A9000BA00BA00BA00BA00BA00BA00BA00BA0036
:105AA000BA00BA00BA00BA00190137011901BA00E8
:105AB000BA00BA00BA00BA00BA00BA00BA00BA0016
:105AC000BA00BA00BA00BA00BA00BA00BA00BC0103
:105AD000BA00BA00BA00BA00BA00BA00BA00BA00F6
